S00C00004C6162322E73726563D7
S113000012C044C019C017C016C015C014C013C014
S113001012C011C010C00FC00EC00DC00CC00BC068
S11300200AC009C008C011241FBECFE5D4E0DEBF5A
S1130030CDBF36D040C0E4CF1F920F920FB60F92BF
S113004011242F938F939F93EF93FF9381E090E07C
S113005010C021E028BBE7EAF1E63197F1F700C0D0
S1130060000018BAE7EAF1E63197F1F700C00000A2
S113007001968B3091056CF3FF91EF919F918F91D5
S11300802F910F900FBE0F901F9018951F920F92F3
S11300900FB60F9211240F900FBE0F901F9018955A
S11300A081E087BB15BE80E88BBF88E081BB82BB43
S10D00B011BA7894FFCFF894FFCF43
S9030000FC
